:100000000C9434000C9451000C9451000C94510049
:100010000C9451000C9451000C9451000C9451001C
:100020000C9451000C9451000C9451000C9451000C
:100030000C9451000C9451000C9451000C945100FC
:100040000C9451000C9451000C9451000C945100EC
:100050000C9451000C9451000C9451000C945100DC
:100060000C9451000C94510011241FBECFEFD8E026
:10007000DEBFCDBF11E0A0E0B1E0EAE2F0E302C0F4
:1000800005900D92A630B107D9F711E0A6E0B1E0D6
:1000900001C01D92AE31B107E1F70E9464000C94DB
:1000A00013180C94000046EF50E005C09A0121504F
:1000B0003040E9F701970097C9F708951BB82898D1
:1000C00029982A982B980895CF93DF93CDB7DEB760
:1000D0002A970FB6F894DEBF0FBECDBF8FEF8AB957
:1000E000209A219A229A239A249825981BB8289816
:1000F00029982A982B982C982D98DE011196E0E0EB
:10010000F1E086E001900D928150E1F70F2EF9EFBA
:100110002F2EF0E13F2EF02D0F2EF3E56F2EF0E0A5
:100120007F2EF02D0F2EF7E04F2E5524F02D4C0E84
:100130005D1ECE01019698878F83510173010F2EAA
:10014000FEE5CF2EF0E0DF2EF02D89879A8783B170
:1001500090E0807290701C9BE6C18032910509F09E
:1001600073C14E010894811C911C1BC0F401608175
:10017000718187E090E0F101099582E390E0F3015D
:1001800009950E945E0082E390E0F3010995015019
:10019000104061F782E090E0880E991E8414950467
:1001A000F9F00AE010E0E2CFF801619171918F015E
:1001B00087E090E0F501099582E390E0F701099569
:1001C000F601099582E390E0F70109954016510682
:1001D00059F70894810891088114910431F408C0FA
:1001E0000F2EFAE08F2E9924F02D09851A85DCCF89
:1001F00008E710E081E090E061E070E0F50109952A
:10020000C801F7010995F601099582E090E062E0E6
:1002100070E0F5010995C801F7010995F601099506
:1002200083E090E064E070E0F5010995C801F70112
:100230000995F601099584E090E061E070E0F50130
:100240000995C801F7010995F601099581E090E04B
:1002500062E070E0F5010995C801F7010995F60122
:10026000099582E090E064E070E0F5010995C8012D
:10027000F7010995F601099583E090E061E070E0EF
:10028000F5010995C801F7010995F601099584E082
:1002900090E062E070E0F5010995C801F701099569
:1002A000F601099581E090E064E070E0F5010995C0
:1002B000C801F7010995F601099582E090E061E037
:1002C00070E0F5010995C801F7010995F601099556
:1002D00083E090E062E070E0F5010995C801F70164
:1002E0000995F601099584E090E064E070E0F5017D
:1002F0000995C801F7010995F601099504511040C7
:10030000FFEF0C3E1F0709F075CF00E010E081E021
:1003100090E061E070E0F5010995C801F7010995E9
:10032000F601099582E090E062E070E0F501099540
:10033000C801F7010995F601099583E090E064E0B2
:1003400070E0F5010995C801F7010995F6010995D5
:1003500084E090E061E070E0F5010995C801F701E3
:100360000995F601099581E090E062E070E0F50101
:100370000995C801F7010995F601099582E090E019
:1003800064E070E0F5010995C801F7010995F601EF
:10039000099583E090E061E070E0F5010995C801FE
:1003A000F7010995F601099584E090E062E070E0BC
:1003B000F5010995C801F7010995F601099581E054
:1003C00090E064E070E0F5010995C801F701099536
:1003D000F601099582E090E061E070E0F501099591
:1003E000C801F7010995F601099583E090E062E004
:1003F00070E0F5010995C801F7010995F601099525
:1004000084E090E064E070E0F5010995C801F7012F
:100410000995F60109950C5E1F4F0C38110509F07E
:1004200076CF87E090E067E070E044EF51E00E9413
:10043000AE0A87E090E067E070E044EF51E00E9490
:100440006B04F601099583CE85E090E061E070E0F1
:10045000F101099586E090E062E070E0F101099514
:1004600080E991E0F30109950E945E0085E090E04B
:1004700062E070E0F101099586E090E064E070E0F0
:10048000F101099580E991E0F30109950E945E0070
:1004900085E090E064E070E0F101099586E090E08D
:1004A00061E070E0F101099580E991E0F3010995BF
:1004B0000E945E0085E090E061E070E0F101099546
:1004C00086E090E062E070E0F101099580E991E05A
:1004D000F30109950E945E0085E090E062E070E023
:1004E000F101099586E090E064E070E0F101099582
:1004F00080E991E0F30109950E945E0085E090E0BB
:1005000064E070E0F101099586E090E061E070E060
:10051000F101099580E991E0F30109950E945E00DF
:100520000E945E0014CE80329105E1F401E010E0FB
:1005300087E090E0B8014CEB52E00E94AE0A87E001
:1005400090E0B8014CEB52E00E946B0488E592E029
:100550000E9453000F5F1F4F0830110549F70E949A
:100560005E00F5CD87E090E061E070E04CEB52E09A
:100570000E94AE0A87E090E061E070E04CEB52E050
:100580000E946B0488E592E00E9453000E945E0086
:10059000DECD8430910509F4BAC0853091056CF444
:1005A0008230910509F449C0833091050CF07AC07E
:1005B0008130910509F08EC10DC08630910509F496
:1005C00012C1863091050CF4D7C08730910509F02F
:1005D00081C142C1109217011092160184E090E08F
:1005E00090930F0180930E01109207011092060163
:1005F000109219011092180190931101809310012B
:10060000109209011092080110921B0110921A0118
:10061000909313018093120110920B0110920A0122
:1006200010921D0110921C019093150180931401EA
:1006300010920D0110920C01089581E090E09093CA
:1006400017018093160125E030E030930F012093CD
:100650000E019093070180930601909319018093F6
:100660001801309311012093100190930901809398
:10067000080190931B0180931A013093130120937A
:10068000120190930B0180930A0190931D018093B6
:100690001C01309315012093140190930D01809358
:1006A0000C01089583E090E0909317018093160168
:1006B00027E030E030930F0120930E019093070163
:1006C00080930601909319018093180130931101D2
:1006D00020931001909309018093080190931B01CE
:1006E00080931A01309313012093120190930B0110
:1006F00080930A0190931D0180931C013093150192
:100700002093140190930D0180930C01089582E0D1
:1007100090E0909317018093160126E030E030932B
:100720000F0120930E01909307018093060190938F
:1007300019018093180130931101209310019093B7
:1007400009018093080190931B0180931A01309353
:1007500013012093120190930B0180930A0190934F
:100760001D0180931C013093150120931401909377
:100770000D0180930C01089510921701109216013B
:1007800084E090E090930F0180930E011092070196
:100790001092060110921901109218019093110104
:1007A00080931001109209011092080183E090E0FB
:1007B00090931B0180931A0127E030E030931301DE
:1007C0002093120190930B0180930A0190931D01D5
:1007D00080931C01309315012093140190930D0117
:1007E00080930C01089581E090E09093170180932D
:1007F000160125E030E030930F0120930E01909315
:10080000070180930601909319018093180130939A
:10081000110120931001909309018093080182E057
:1008200090E090931B0180931A0126E030E0309312
:1008300013012093120190930B0180930A0190936E
:100840001D0180931C013093150120931401909396
:100850000D0180930C01089510921701109216015A
:1008600084E090E090930F0180930E0110920701B5
:100870001092060181E090E0909319018093180195
:1008800025E030E03093110120931001909309018D
:100890008093080183E090E090931B0180931A01FC
:1008A00027E030E0309313012093120190930B0165
:1008B00080930A0182E090E090931D0180931C01D7
:1008C00026E030E0309315012093140190930D0140
:1008D00080930C0108952F923F924F925F926F92F6
:1008E0007F928F929F92AF92BF92CF92DF92EF92C0
:1008F000FF920F931F93CF93DF93EB016A010E9446
:10090000C902C430D10521F1C530D1055CF4C23033
:10091000D10531F1C330D105FCF4C130D10509F066
:100920000AC622C0C630D10559F0C630D10564F0E0
:10093000C730D10509F0FFC5DD200CF09EC4FBC512
:10094000DD200CF09CC3F7C5DD200CF09AC2F3C586
:10095000DD200CF012C2EFC5DD200CF010C1EBC59C
:10096000DD200CF088C0E7C5DD200CF4E4C5B6013D
:1009700040E050E0E6E0F1E021E030E0EF012296D7
:100980008F010C5F1F4F0F2EF6E0EF2EFF24F02D8E
:10099000EE0EFF1EA5B1C901008002C0880F991F8D
:1009A0000A94E2F78A2B85B9A5B1C901088002C073
:1009B000880F991F0A94E2F78A2B85B9A5B0C9015F
:1009C000D8010C9002C0880F991F0A94E2F78A2977
:1009D00085B9A5B0C901D7010C9002C0880F991F35
:1009E0000A94E2F78A2985B9772334F0CB0101977D
:1009F000BFEF8F3F9B07D9F7A5B1C901008002C0A7
:100A0000880F991F0A94E2F780958A2385B9A5B1CA
:100A1000C901088002C0880F991F0A94E2F78095E7
:100A20008A2385B9A5B0C901D8010C9002C0880FEE
:100A3000991F0A94E2F780958A2185B9A5B0C9016A
:100A4000D7010C9002C0880F991F0A94E2F7809595
:100A50008A2185B9552334F0CA010197BFEF8F3F32
:100A60009B07D9F7615070404F5F5F4FC416D506A2
:100A70000CF090CF60C5B60140E050E0EEE0F1E050
:100A800021E030E0EF0122968F010C5F1F4F0F2E07
:100A9000F6E0EF2EFF24F02DEE0EFF1EABB1C901E4
:100AA000008002C0880F991F0A94E2F78A2B8BB945
:100AB000ABB1C901088002C0880F991F0A94E2F700
:100AC0008A2B8BB9ABB0C901D8010C9002C0880F3A
:100AD000991F0A94E2F78A298BB9ABB0C901D701F3
:100AE0000C9002C0880F991F0A94E2F78A298BB9EB
:100AF000772334F0CB010197BFEF8F3F9B07D9F7E6
:100B0000ABB1C901008002C0880F991F0A94E2F7B7
:100B100080958A238BB9ABB1C901088002C0880FC8
:100B2000991F0A94E2F780958A238BB9ABB0C9016B
:100B3000D8010C9002C0880F991F0A94E2F78095A3
:100B40008A218BB9ABB0C901D7010C9002C0880FC4
:100B5000991F0A94E2F780958A218BB9552334F0C6
:100B6000CA010197BFEF8F3F9B07D9F761507040D3
:100B70004F5F5F4FC416D5060CF090CFDCC4F60172
:100B800060E070E00F2EFEE02F2EF1E03F2EF02D02
:100B900021E030E081010E5F1F4FEE24FF246894B6
:100BA000E2F8E20CF31C0F2EF6E0AF2EBB24F02D82
:100BB000A20CB31CC6E0D1E088249924689481F883
:100BC0008C0E9D1E66247724689462F86C0E7D1E40
:100BD0000F2EF6E04F2E5524F02D4C0E5D1E4BB11E
:100BE000C901D1010C9002C0880F991F0A94E2F745
:100BF000842B8BB94BB1C901D8010C9002C0880F6E
:100C0000991F0A94E2F7842B8BB94BB1C901D70124
:100C10000C9002C0880F991F0A94E2F7842B8BB9BD
:100C20004BB1C901D5010C9002C0880F991F0A94DD
:100C3000E2F7842B8BB945B1C901088002C0880F47
:100C4000991F0A94E2F7842B85B945B1C901D401F3
:100C50000C9002C0880F991F0A94E2F7842B85B983
:100C600045B1C901D3010C9002C0880F991F0A94A5
:100C7000E2F7842B85B945B1C901D2010C9002C0BD
:100C8000880F991F0A94E2F7842B85B9FF2334F06B
:100C9000CF010197BFEF8F3F9B07D9F74BB1C90138
:100CA000D1010C9002C0880F991F0A94E2F7809539
:100CB00048234BB94BB1C901D8010C9002C0880F31
:100CC000991F0A94E2F7809548234BB94BB1C901AB
:100CD000D7010C9002C0880F991F0A94E2F7809503
:100CE00048234BB94BB1C901D5010C9002C0880F04
:100CF000991F0A94E2F7809548234BB945B1C90181
:100D0000088002C0880F991F0A94E2F78095482353
:100D100045B945B1C901D4010C9002C0880F991F93
:100D20000A94E2F78095482345B945B1C901D3013A
:100D30000C9002C0880F991F0A94E2F7809548230F
:100D400045B945B1C901D2010C9002C0880F991F65
:100D50000A94E2F78095482345B9772334F0CB0114
:100D60000197BFEF8F3F9B07D9F731976F5F7F4F99
:100D7000C616D7060CF033CFDEC3B60140E050E014
:100D8000E6E1F1E021E030E0EF0122968F010C5F17
:100D90001F4F0F2EF6E0EF2EFF24F02DEE0EFF1E5C
:100DA000ABB1C901008002C0880F991F0A94E2F715
:100DB0008A2B8BB9ABB1C901088002C0880F991F7B
:100DC0000A94E2F78A2B8BB9ABB0C901D8010C9019
:100DD00002C0880F991F0A94E2F78A298BB9ABB039
:100DE000C901D7010C9002C0880F991F0A94E2F73D
:100DF0008A298BB9772334F0CB010197BFEF8F3F5E
:100E00009B07D9F7ABB1C901008002C0880F991FB9
:100E10000A94E2F780958A238BB9ABB1C9010880A7
:100E200002C0880F991F0A94E2F780958A238BB934
:100E3000ABB0C901D8010C9002C0880F991F0A9469
:100E4000E2F780958A218BB9ABB0C901D7010C902C
:100E500002C0880F991F0A94E2F780958A218BB906
:100E6000552334F0CA010197BFEF8F3F9B07D9F795
:100E7000615070404F5F5F4FC416D5060CF090CFA5
:100E80005AC3F60160E070E00F2EF6E12F2EF1E07C
:100E90003F2EF02D21E030E081010E5F1F4FEE2448
:100EA000FF246894E2F8E20CF31C0F2EF6E0AF2E5C
:100EB000BB24F02DA20CB31CC6E0D1E088249924F9
:100EC000689481F88C0E9D1E66247724689462F8DD
:100ED0006C0E7D1E0F2EF6E04F2E5524F02D4C0E7D
:100EE0005D1E4BB1C901D1010C9002C0880F991F42
:100EF0000A94E2F7842B8BB94BB1C901D8010C904D
:100F000002C0880F991F0A94E2F7842B8BB94BB16A
:100F1000C901D7010C9002C0880F991F0A94E2F70B
:100F2000842B8BB94BB1C901D5010C9002C0880F3D
:100F3000991F0A94E2F7842B8BB945B1C901088047
:100F400002C0880F991F0A94E2F7842B85B945B136
:100F5000C901D4010C9002C0880F991F0A94E2F7CE
:100F6000842B85B945B1C901D3010C9002C0880F0B
:100F7000991F0A94E2F7842B85B945B1C901D201C2
:100F80000C9002C0880F991F0A94E2F7842B85B950
:100F9000FF2334F0CF010197BFEF8F3F9B07D9F7B5
:100FA0004BB1C901D1010C9002C0880F991F0A945E
:100FB000E2F7809548234BB94BB1C901D8010C9099
:100FC00002C0880F991F0A94E2F7809548234BB915
:100FD0004BB1C901D7010C9002C0880F991F0A9428
:100FE000E2F7809548234BB94BB1C901D5010C906C
:100FF00002C0880F991F0A94E2F7809548234BB9E5
:1010000045B1C901088002C0880F991F0A94E2F710
:101010008095482345B945B1C901D4010C9002C05F
:10102000880F991F0A94E2F78095482345B945B186
:10103000C901D3010C9002C0880F991F0A94E2F7EE
:101040008095482345B945B1C901D2010C9002C031
:10105000880F991F0A94E2F78095482345B97723B2
:1010600034F0CB010197BFEF8F3F9B07D9F7319742
:101070006F5F7F4FC616D7060CF033CF5CC2F60108
:1010800060E070E00F2EF6E12F2EF1E03F2EF02D04
:1010900021E030E081010E5F1F4FEE24FF246894B1
:1010A000E2F8E20CF31C0F2EF6E0AF2EBB24F02D7D
:1010B000A20CB31CCEE0D1E088249924689481F876
:1010C0008C0E9D1E66247724689462F86C0E7D1E3B
:1010D0000F2EF6E04F2E5524F02D4C0E5D1E4BB119
:1010E000C901D1010C9002C0880F991F0A94E2F740
:1010F000842B8BB94BB1C901D8010C9002C0880F69
:10110000991F0A94E2F7842B8BB94BB1C901D7011F
:101110000C9002C0880F991F0A94E2F7842B8BB9B8
:101120004BB1C901D5010C9002C0880F991F0A94D8
:10113000E2F7842B8BB94BB1C901088002C0880F3C
:10114000991F0A94E2F7842B8BB94BB1C901D401E2
:101150000C9002C0880F991F0A94E2F7842B8BB978
:101160004BB1C901D3010C9002C0880F991F0A949A
:10117000E2F7842B8BB94BB1C901D2010C9002C0AC
:10118000880F991F0A94E2F7842B8BB9FF2334F060
:10119000CF010197BFEF8F3F9B07D9F74BB1C90133
:1011A000D1010C9002C0880F991F0A94E2F7809534
:1011B00048234BB94BB1C901D8010C9002C0880F2C
:1011C000991F0A94E2F7809548234BB94BB1C901A6
:1011D000D7010C9002C0880F991F0A94E2F78095FE
:1011E00048234BB94BB1C901D5010C9002C0880FFF
:1011F000991F0A94E2F7809548234BB94BB1C90176
:10120000088002C0880F991F0A94E2F7809548234E
:101210004BB94BB1C901D4010C9002C0880F991F82
:101220000A94E2F7809548234BB94BB1C901D30129
:101230000C9002C0880F991F0A94E2F7809548230A
:101240004BB94BB1C901D2010C9002C0880F991F54
:101250000A94E2F7809548234BB9772334F0CB0109
:101260000197BFEF8F3F9B07D9F731976F5F7F4F94
:10127000C616D7060CF033CF5EC1F60160E070E011
:1012800021E030E0EE24FF246894E1F886E191E06B
:10129000E80EF91EAA24BB246894A2F8A80EB91E71
:1012A0000F2EF6E08F2E9924F02D880E991ECEE099
:1012B000D1E066247724689461F86C0E7D1E442486
:1012C0005524689442F84C0E5D1E0F2EF6E02F2E2A
:1012D0003324F02D2C0E3D1E06E011E04BB1C90168
:1012E000A6E1B1E00C9002C0880F991F0A94E2F7C2
:1012F000842B8BB94BB1C901D7010C9002C0880F68
:10130000991F0A94E2F7842B8BB94BB1C901D5011F
:101310000C9002C0880F991F0A94E2F7842B8BB9B6
:101320004BB1C901D4010C9002C0880F991F0A94D7
:10133000E2F7842B8BB94BB1C901088002C0880F3A
:10134000991F0A94E2F7842B8BB94BB1C901D301E1
:101350000C9002C0880F991F0A94E2F7842B8BB976
:101360004BB1C901D2010C9002C0880F991F0A9499
:10137000E2F7842B8BB94BB1C901D1010C9002C0AB
:10138000880F991F0A94E2F7842B8BB945B1C901E4
:10139000D8010C9002C0880F991F0A94E2F7842BA1
:1013A00085B945B1C901A8E0B1E00C9002C0880F31
:1013B000991F0A94E2F7842B85B945B1C9011296A9
:1013C0000C9002C0880F991F0A94E2F7842B85B90C
:1013D00045B1C90112960C9002C0880F991F0A945A
:1013E000E2F7842B85B9FF2334F0CF010197BFEFDB
:1013F0008F3F9B07D9F74BB1C901A6E1B1E00C9033
:1014000002C0880F991F0A94E2F7809548234BB9D0
:101410004BB1C901D7010C9002C0880F991F0A94E3
:10142000E2F7809548234BB94BB1C901D5010C9027
:1014300002C0880F991F0A94E2F7809548234BB9A0
:101440004BB1C901D4010C9002C0880F991F0A94B6
:10145000E2F7809548234BB94BB1C901088002C01F
:10146000880F991F0A94E2F7809548234BB94BB136
:10147000C901D3010C9002C0880F991F0A94E2F7AA
:10148000809548234BB94BB1C901D2010C9002C0E1
:10149000880F991F0A94E2F7809548234BB94BB106
:1014A000C901D1010C9002C0880F991F0A94E2F77C
:1014B000809548234BB945B1C901D8010C9002C0B1
:1014C000880F991F0A94E2F78095482345B945B1E2
:1014D000C901A8E0B1E00C9002C0880F991F0A94DE
:1014E000E2F78095482345B945B1C90112960C90A1
:1014F00002C0880F991F0A94E2F78095482345B9E6
:1015000045B1C90112960C9002C0880F991F0A9428
:10151000E2F78095482345B9772334F0CB01019752
:10152000BFEF8F3F9B07D9F731976F5F7F4FC6168D
:10153000D7060CF0D3CEDF91CF911F910F91FF9082
:10154000EF90DF90CF90BF90AF909F908F907F9063
:101550006F905F904F903F902F9008952F923F9201
:101560004F925F926F927F928F929F92AF92BF92B3
:10157000CF92DF92EF92FF920F931F93CF93DF935F
:10158000EB018A010E94C902C430D10521F1C530A6
:10159000D1055CF4C230D10531F1C330D105FCF482
:1015A000C130D10509F012C622C0C630D10559F0AC
:1015B000C630D10564F0C730D10509F007C6112344
:1015C0000CF0A1C403C611230CF0A1C3FFC5112365
:1015D0000CF0A1C2FBC511230CF016C2F7C51123F4
:1015E0000CF016C1F3C511230CF08BC0EFC511230D
:1015F0000CF4ECC540E050E0E6E0F1E021E030E042
:10160000CC24DD246894C1F8CE0EDF1EEF012496B1
:101610000F2EF6E0EF2EFF24F02DEE0EFF1E65B12B
:10162000C901008002C0880F991F0A94E2F78095D3
:10163000862385B965B1C901D6010C9002C0880F17
:10164000991F0A94E2F78095862385B965B1C9018F
:10165000088002C0880F991F0A94E2F780958623BC
:1016600085B965B1C901D7010C9002C0880F991FD7
:101670000A94E2F78095862385B9112334F0C801D6
:101680000197BFEF8F3F9B07D9F765B1C901008074
:1016900002C0880F991F0A94E2F7862B85B965B1BD
:1016A000C901D6010C9002C0880F991F0A94E2F775
:1016B000862B85B965B1C901088002C0880F991FC2
:1016C0000A94E2F7862B85B965B1C901D7010C9060
:1016D00002C0880F991F0A94E2F7862B85B955231B
:1016E00034F0CA010197BFEF8F3F9B07D9F74F5FD7
:1016F0005F4F015010406FEF0F3F160709F08FCF7B
:1017000065C540E050E0EEE0F1E021E030E0CC24BF
:10171000DD246894C1F8CE0EDF1EEF0124960F2E53
:10172000F6E0EF2EFF24F02DEE0EFF1E6BB1C90187
:10173000008002C0880F991F0A94E2F780958623E3
:101740008BB96BB1C901D6010C9002C0880F991FEB
:101750000A94E2F7809586238BB96BB1C9010880A2
:1017600002C0880F991F0A94E2F7809586238BB9EF
:101770006BB1C901D7010C9002C0880F991F0A9460
:10178000E2F7809586238BB9112334F0C8010197C5
:10179000BFEF8F3F9B07D9F76BB1C901008002C033
:1017A000880F991F0A94E2F7862B8BB96BB1C90198
:1017B000D6010C9002C0880F991F0A94E2F7862B7D
:1017C0008BB96BB1C901088002C0880F991F0A94B8
:1017D000E2F7862B8BB96BB1C901D7010C9002C01F
:1017E000880F991F0A94E2F7862B8BB9552334F0A2
:1017F000CA010197BFEF8F3F9B07D9F74F5F5F4F3C
:10180000015010406FEF0F3F160709F08FCFDEC475
:1018100060E070E0EEE0F1E021E030E044245524A7
:10182000689441F84E0E5F1EEE24FF246894E2F89F
:10183000EE0EFF1E0F2EF6E0CF2EDD24F02DCE0E85
:10184000DF1EA6E0B1E0AA24BB246894A1F8AA0E8A
:10185000BB1E88249924689482F88A0E9B1E0F2E42
:10186000F6E06F2E7724F02D6A0E7B1E4BB1C90176
:10187000008002C0880F991F0A94E2F780954823E0
:101880004BB94BB1C901E201088002C0880F991F12
:101890000A94E2F7809548234BB94BB1C901E7019F
:1018A000088002C0880F991F0A94E2F780954823A8
:1018B0004BB94BB1C901E601088002C0880F991FDE
:1018C0000A94E2F7809548234BB945B1C9010C90C1
:1018D00002C0880F991F0A94E2F78095482345B902
:1018E00045B1C901E501088002C0880F991F0A941B
:1018F000E2F78095482345B945B1C901E401088064
:1019000002C0880F991F0A94E2F78095482345B9D1
:1019100045B1C901E301088002C0880F991F0A94EC
:10192000E2F78095482345B9112334F0C8010197A7
:10193000DFEF8F3F9D07D9F74BB1C901008002C08F
:10194000880F991F0A94E2F7842B8BB94BB1C90118
:10195000E201088002C0880F991F0A94E2F7842BE5
:101960008BB94BB1C901E701088002C0880F991FEC
:101970000A94E2F7842B8BB94BB1C901E6010880C8
:1019800002C0880F991F0A94E2F7842B8BB945B1E6
:10199000C9010C9002C0880F991F0A94E2F7842BAA
:1019A00085B945B1C901E501088002C0880F991FBA
:1019B0000A94E2F7842B85B945B1C901E401088096
:1019C00002C0880F991F0A94E2F7842B85B945B1AC
:1019D000C901E301088002C0880F991F0A94E2F749
:1019E000842B85B9772334F0CB010197DFEF8F3F4C
:1019F0009D07D9F76F5F7F4F015010404FEF0F3FAA
:101A0000140709F033CFE2C340E050E0E6E1F1E033
:101A100021E030E0CC24DD246894C1F8CE0EDF1E36
:101A2000EF0124960F2EF6E0EF2EFF24F02DEE0EA0
:101A3000FF1E6BB1C901008002C0880F991F0A9474
:101A4000E2F7809586238BB96BB1C901D6010C9062
:101A500002C0880F991F0A94E2F7809586238BB9FC
:101A60006BB1C901088002C0880F991F0A94E2F780
:101A7000809586238BB96BB1C901D7010C9002C048
:101A8000880F991F0A94E2F7809586238BB911235A
:101A900034F0C8010197BFEF8F3F9B07D9F76BB1B7
:101AA000C901008002C0880F991F0A94E2F7862BB3
:101AB0008BB96BB1C901D6010C9002C0880F991F78
:101AC0000A94E2F7862B8BB96BB1C901088002C07A
:101AD000880F991F0A94E2F7862B8BB96BB1C90165
:101AE000D7010C9002C0880F991F0A94E2F7862B49
:101AF0008BB9552334F0CA010197BFEF8F3F9B0785
:101B0000D9F74F5F5F4F015010406FEF0F3F16073F
:101B100009F08FCF5BC360E070E0E6E1F1E021E027
:101B200030E044245524689441F84E0E5F1EEE24A4
:101B3000FF246894E2F8EE0EFF1E0F2EF6E0CF2E83
:101B4000DD24F02DCE0EDF1EA6E0B1E0AA24BB24DA
:101B50006894A1F8AA0EBB1E88249924689482F880
:101B60008A0E9B1E0F2EF6E06F2E7724F02D6A0E44
:101B70007B1E4BB1C901008002C0880F991F0A94D7
:101B8000E2F7809548234BB94BB1C901E2010880C7
:101B900002C0880F991F0A94E2F7809548234BB939
:101BA0004BB1C901E701088002C0880F991F0A9450
:101BB000E2F7809548234BB94BB1C901E601088093
:101BC00002C0880F991F0A94E2F7809548234BB909
:101BD00045B1C9010C9002C0880F991F0A94E2F721
:101BE0008095482345B945B1C901E501088002C087
:101BF000880F991F0A94E2F78095482345B945B1AB
:101C0000C901E401088002C0880F991F0A94E2F715
:101C10008095482345B945B1C901E301088002C058
:101C2000880F991F0A94E2F78095482345B911233C
:101C300034F0C8010197DFEF8F3F9D07D9F74BB113
:101C4000C901008002C0880F991F0A94E2F7842B13
:101C50008BB94BB1C901E201088002C0880F991FFE
:101C60000A94E2F7842B8BB94BB1C901E7010880D4
:101C700002C0880F991F0A94E2F7842B8BB94BB1ED
:101C8000C901E601088002C0880F991F0A94E2F793
:101C9000842B8BB945B1C9010C9002C0880F991FE4
:101CA0000A94E2F7842B85B945B1C901E5010880A2
:101CB00002C0880F991F0A94E2F7842B85B945B1B9
:101CC000C901E401088002C0880F991F0A94E2F755
:101CD000842B85B945B1C901E301088002C0880F92
:101CE000991F0A94E2F7842B85B9772334F0CB014E
:101CF0000197DFEF8F3F9D07D9F76F5F7F4F01504F
:101D000010404FEF0F3F140709F033CF5FC260E080
:101D100070E0E6E1F1E021E030E0442455246894ED
:101D200041F84E0E5F1EEE24FF246894E2F8EE0E9A
:101D3000FF1E0F2EF6E0CF2EDD24F02DCE0EDF1E7F
:101D4000AEE0B1E0AA24BB246894A1F8AA0EBB1EA1
:101D500088249924689482F88A0E9B1E0F2EF6E040
:101D60006F2E7724F02D6A0E7B1E4BB1C9010080C7
:101D700002C0880F991F0A94E2F7809548234BB957
:101D80004BB1C901E201088002C0880F991F0A9473
:101D9000E2F7809548234BB94BB1C901E7010880B0
:101DA00002C0880F991F0A94E2F7809548234BB927
:101DB0004BB1C901E601088002C0880F991F0A943F
:101DC000E2F7809548234BB94BB1C9010C9002C092
:101DD000880F991F0A94E2F7809548234BB94BB1BD
:101DE000C901E501088002C0880F991F0A94E2F733
:101DF000809548234BB94BB1C901E401088002C06A
:101E0000880F991F0A94E2F7809548234BB94BB18C
:101E1000C901E301088002C0880F991F0A94E2F704
:101E2000809548234BB9112334F0C8010197DFEFA7
:101E30008F3F9D07D9F74BB1C901008002C0880FC1
:101E4000991F0A94E2F7842B8BB94BB1C901E201C7
:101E5000088002C0880F991F0A94E2F7842B8BB97F
:101E60004BB1C901E701088002C0880F991F0A948D
:101E7000E2F7842B8BB94BB1C901E601088002C09F
:101E8000880F991F0A94E2F7842B8BB94BB1C901D3
:101E90000C9002C0880F991F0A94E2F7842B8BB92B
:101EA0004BB1C901E501088002C0880F991F0A944F
:101EB000E2F7842B8BB94BB1C901E401088002C061
:101EC000880F991F0A94E2F7842B8BB94BB1C90193
:101ED000E301088002C0880F991F0A94E2F7842B5F
:101EE0008BB9772334F0CB010197DFEF8F3F9D074C
:101EF000D9F76F5F7F4F015010404FEF0F3F14072E
:101F000009F033CF63C160E070E021E030E0EE24FF
:101F1000FF246894E1F886E191E0E80EF91ECC24F4
:101F2000DD246894C2F8C80ED91E0F2EF6E0AF2E3D
:101F3000BB24F02DA80EB91EAEE0B1E08824992490
:101F4000689481F88A0E9B1E66247724689462F850
:101F50006A0E7B1E0F2EF6E04F2E5524F02D4A0EF2
:101F60005B1EC6E0D1E022243324689421F82C0EB5
:101F70003D1E4BB1C901E6E1F1E0008002C0880FCF
:101F8000991F0A94E2F7809548234BB94BB1C901D8
:101F9000F701008002C0880F991F0A94E2F780952C
:101FA00048234BB94BB1C901F601008002C0880F2C
:101FB000991F0A94E2F7809548234BB94BB1C901A8
:101FC000F501008002C0880F991F0A94E2F78095FE
:101FD00048234BB94BB1C9010C9002C0880F991F1F
:101FE0000A94E2F7809548234BB94BB1C901F4013B
:101FF000008002C0880F991F0A94E2F78095482359
:102000004BB94BB1C901F301008002C0880F991F81
:102010000A94E2F7809548234BB94BB1C901F2010C
:10202000008002C0880F991F0A94E2F78095482328
:102030004BB945B1C901088002C0880F991F0A94A5
:10204000E2F78095482345B945B1C901F101008007
:1020500002C0880F991F0A94E2F78095482345B97A
:1020600045B1C901EAE0F1E0008002C0880F991F84
:102070000A94E2F78095482345B945B1C9013296E3
:10208000008002C0880F991F0A94E2F780954823C8
:1020900045B9112334F0C8010197FFEF8F3F9F0727
:1020A000D9F74BB1C901E6E1F1E0008002C0880F29
:1020B000991F0A94E2F7842B8BB94BB1C901F70140
:1020C000008002C0880F991F0A94E2F7842B8BB915
:1020D0004BB1C901F601008002C0880F991F0A9414
:1020E000E2F7842B8BB94BB1C901F501008002C026
:1020F000880F991F0A94E2F7842B8BB94BB1C90161
:102100000C9002C0880F991F0A94E2F7842B8BB9B8
:102110004BB1C901F401008002C0880F991F0A94D5
:10212000E2F7842B8BB94BB1C901F301008002C0E7
:10213000880F991F0A94E2F7842B8BB94BB1C90120
:10214000F201008002C0880F991F0A94E2F7842BE5
:102150008BB945B1C901088002C0880F991F0A9444
:10216000E2F7842B85B945B1C901F101008002C0B5
:10217000880F991F0A94E2F7842B85B945B1C901EC
:10218000EAE0F1E0008002C0880F991F0A94E2F7AC
:10219000842B85B945B1C9013296008002C0880FF1
:1021A000991F0A94E2F7842B85B9772334F0CB0189
:1021B0000197FFEF8F3F9F07D9F76F5F7F4F015068
:1021C00010404FEF0F3F140709F0D3CEDF91CF91AE
:1021D0001F910F91FF90EF90DF90CF90BF90AF9045
:1021E0009F908F907F906F905F904F903F902F9037
:1021F0000895CF93DF93EB010E94C902C430D1054B
:1022000009F4D3C0C530D1056CF4C230D10509F44E
:1022100044C0C330D1050CF06EC0C130D10509F007
:102220002BC20DC0C630D10509F447C1C630D10557
:102230000CF4E9C0C730D10509F01EC298C145B100
:1022400081E090E09C010090060102C0220F331F44
:102250000A94E2F7242B25B945B19C0100900801AE
:1022600002C0220F331F0A94E2F7242B25B945B18F
:102270009C0100900A0102C0220F331F0A94E2F76A
:10228000242B25B925B100900C0102C0880F991F9D
:102290000A94E2F7822B85B9EFC14BB181E090E05F
:1022A0009C0100900E0102C0220F331F0A94E2F736
:1022B000242B2BB94BB19C010090100102C0220FBE
:1022C000331F0A94E2F7242B2BB94BB19C010090E9
:1022D000120102C0220F331F0A94E2F7242B2BB9FC
:1022E0002BB10090140102C0880F991F0A94E2F7E5
:1022F000822B8BB9C1C14BB181E090E09C01009071
:102300000E0102C0220F331F0A94E2F7242B2BB9CF
:102310004BB19C010090100102C0220F331F0A94A0
:10232000E2F7242B2BB94BB19C010090120102C0A3
:10233000220F331F0A94E2F7242B2BB94BB19C01D7
:102340000090140102C0220F331F0A94E2F7242BDD
:102350002BB945B19C010090060102C0220F331F2A
:102360000A94E2F7242B25B945B19C01009008019D
:1023700002C0220F331F0A94E2F7242B25B945B17E
:102380009C0100900A0102C0220F331F0A94E2F759
:10239000242B25B925B100900C0102C0880F991F8C
:1023A0000A94E2F7822B85B967C14BB181E090E0D6
:1023B0009C010090160102C0220F331F0A94E2F71D
:1023C000242B2BB94BB19C010090180102C0220FA5
:1023D000331F0A94E2F7242B2BB94BB19C010090D8
:1023E0001A0102C0220F331F0A94E2F7242B2BB9E3
:1023F0002BB100901C0102C0880F991F0A94E2F7CC
:10240000822B8BB939C14BB181E090E09C010090E7
:10241000160102C0220F331F0A94E2F7242B2BB9B6
:102420004BB19C010090180102C0220F331F0A9487
:10243000E2F7242B2BB94BB19C0100901A0102C08A
:10244000220F331F0A94E2F7242B2BB94BB19C01C6
:1024500000901C0102C0220F331F0A94E2F7242BC4
:102460002BB945B19C010090060102C0220F331F19
:102470000A94E2F7242B25B945B19C01009008018C
:1024800002C0220F331F0A94E2F7242B25B945B16D
:102490009C0100900A0102C0220F331F0A94E2F748
:1024A000242B25B925B100900C0102C0880F991F7B
:1024B0000A94E2F7822B85B9DFC04BB181E090E04E
:1024C0009C010090160102C0220F331F0A94E2F70C
:1024D000242B2BB94BB19C010090180102C0220F94
:1024E000331F0A94E2F7242B2BB94BB19C010090C7
:1024F0001A0102C0220F331F0A94E2F7242B2BB9D2
:102500004BB19C0100901C0102C0220F331F0A94A2
:10251000E2F7242B2BB94BB19C0100900E0102C0B5
:10252000220F331F0A94E2F7242B2BB94BB19C01E5
:102530000090100102C0220F331F0A94E2F7242BEF
:102540002BB94BB19C010090120102C0220F331F26
:102550000A94E2F7242B2BB92BB10090140102C08E
:10256000880F991F0A94E2F7822B8BB985C04BB173
:1025700081E090E09C010090160102C0220F331F01
:102580000A94E2F7242B2BB94BB19C01009018015F
:1025900002C0220F331F0A94E2F7242B2BB94BB150
:1025A0009C0100901A0102C0220F331F0A94E2F727
:1025B000242B2BB94BB19C0100901C0102C0220FAF
:1025C000331F0A94E2F7242B2BB94BB19C010090E6
:1025D0000E0102C0220F331F0A94E2F7242B2BB9FD
:1025E0004BB19C010090100102C0220F331F0A94CE
:1025F000E2F7242B2BB94BB19C010090120102C0D1
:10260000220F331F0A94E2F7242B2BB94BB19C0104
:102610000090140102C0220F331F0A94E2F7242B0A
:102620002BB945B19C010090060102C0220F331F57
:102630000A94E2F7242B25B945B19C0100900801CA
:1026400002C0220F331F0A94E2F7242B25B945B1AB
:102650009C0100900A0102C0220F331F0A94E2F786
:10266000242B25B925B100900C0102C0880F991FB9
:102670000A94E2F7822B85B9DF91CF910895CF9329
:10268000DF93EB010E94C902C430D10509F4E3C015
:10269000C530D1056CF4C230D10509F448C0C3304F
:1026A000D1050CF076C0C130D10509F05BC20DC078
:1026B000C630D10509F463C1C630D1050CF4FDC0A4
:1026C000C730D10509F04EC2BCC145B181E090E0F0
:1026D0009C010090060102C0220F331F0A94E2F70A
:1026E0002095242325B945B19C010090080102C022
:1026F000220F331F0A94E2F72095242325B945B110
:102700009C0100900A0102C0220F331F0A94E2F7D5
:102710002095242325B925B100900C0102C0880F13
:10272000991F0A94E2F78095822385B91BC24BB1A9
:1027300081E090E09C0100900E0102C0220F331F47
:102740000A94E2F7209524232BB94BB19C01009009
:10275000100102C0220F331F0A94E2F720952423B0
:102760002BB94BB19C010090120102C0220F331F04
:102770000A94E2F7209524232BB92BB10090140181
:1027800002C0880F991F0A94E2F7809582238BB9C3
:10279000E9C14BB181E090E09C0100900E0102C0C4
:1027A000220F331F0A94E2F7209524232BB94BB153
:1027B0009C010090100102C0220F331F0A94E2F71F
:1027C000209524232BB94BB19C010090120102C02B
:1027D000220F331F0A94E2F7209524232BB94BB123
:1027E0009C010090140102C0220F331F0A94E2F7EB
:1027F000209524232BB945B19C010090060102C00D
:10280000220F331F0A94E2F72095242325B945B1FE
:102810009C010090080102C0220F331F0A94E2F7C6
:102820002095242325B945B19C0100900A0102C0DE
:10283000220F331F0A94E2F72095242325B925B1EE
:1028400000900C0102C0880F991F0A94E2F780954E
:10285000822385B987C14BB181E090E09C01009053
:10286000160102C0220F331F0A94E2F72095242399
:102870002BB94BB19C010090180102C0220F331FED
:102880000A94E2F7209524232BB94BB19C010090C8
:102890001A0102C0220F331F0A94E2F72095242365
:1028A0002BB92BB100901C0102C0880F991F0A940C
:1028B000E2F7809582238BB955C14BB181E090E05E
:1028C0009C010090160102C0220F331F0A94E2F708
:1028D000209524232BB94BB19C010090180102C014
:1028E000220F331F0A94E2F7209524232BB94BB112
:1028F0009C0100901A0102C0220F331F0A94E2F7D4
:10290000209524232BB94BB19C0100901C0102C0DF
:10291000220F331F0A94E2F7209524232BB945B1E7
:102920009C010090060102C0220F331F0A94E2F7B7
:102930002095242325B945B19C010090080102C0CF
:10294000220F331F0A94E2F72095242325B945B1BD
:102950009C0100900A0102C0220F331F0A94E2F783
:102960002095242325B925B100900C0102C0880FC1
:10297000991F0A94E2F78095822385B9F3C04BB181
:1029800081E090E09C010090160102C0220F331FED
:102990000A94E2F7209524232BB94BB19C010090B7
:1029A000180102C0220F331F0A94E2F72095242356
:1029B0002BB94BB19C0100901A0102C0220F331FAA
:1029C0000A94E2F7209524232BB94BB19C01009087
:1029D0001C0102C0220F331F0A94E2F72095242322
:1029E0002BB94BB19C0100900E0102C0220F331F86
:1029F0000A94E2F7209524232BB94BB19C01009057
:102A0000100102C0220F331F0A94E2F720952423FD
:102A10002BB94BB19C010090120102C0220F331F51
:102A20000A94E2F7209524232BB92BB100901401CE
:102A300002C0880F991F0A94E2F7809582238BB910
:102A400091C04BB181E090E09C010090160102C062
:102A5000220F331F0A94E2F7209524232BB94BB1A0
:102A60009C010090180102C0220F331F0A94E2F764
:102A7000209524232BB94BB19C0100901A0102C070
:102A8000220F331F0A94E2F7209524232BB94BB170
:102A90009C0100901C0102C0220F331F0A94E2F730
:102AA000209524232BB94BB19C0100900E0102C04C
:102AB000220F331F0A94E2F7209524232BB94BB140
:102AC0009C010090100102C0220F331F0A94E2F70C
:102AD000209524232BB94BB19C010090120102C018
:102AE000220F331F0A94E2F7209524232BB94BB110
:102AF0009C010090140102C0220F331F0A94E2F7D8
:102B0000209524232BB945B19C010090060102C0F9
:102B1000220F331F0A94E2F72095242325B945B1EB
:102B20009C010090080102C0220F331F0A94E2F7B3
:102B30002095242325B945B19C0100900A0102C0CB
:102B4000220F331F0A94E2F72095242325B925B1DB
:102B500000900C0102C0880F991F0A94E2F780953B
:102B6000822385B9DF91CF910895CF93DF93EB0155
:102B70008430910509F45BC0853091055CF48230A6
:102B8000910569F183309105F4F58130910509F0E3
:102B900001C111C08630910509F485C086309105C8
:102BA0000CF459C08730910509F4A5C0883091050F
:102BB00009F0F0C0C8C081E090E00E94F91082E006
:102BC00090E0BE010E94F91083E090E0BE010E94F7
:102BD000F91084E090E0BE010E94F910DBC081E0B2
:102BE00090E00E943F1382E090E0BE010E943F13FC
:102BF00083E090E0BE010E943F1384E090E0BE01BC
:102C00000E943F13C7C084E090E00E94F91083E067
:102C100090E0BE010E94F91082E090E0BE010E94A7
:102C2000F91081E090E0BE010E94F910B3C084E089
:102C300090E00E943F1383E090E0BE010E943F13AA
:102C400082E090E0BE010E943F1381E090E0BE016F
:102C50000E943F139FC081E090E00E94F91081E044
:102C600090E0BE010E943F1382E090E0BE010E940E
:102C7000F91082E090E0BE010E943F1383E090E0F3
:102C8000BE010E94F91083E090E0BE010E943F1354
:102C900084E090E0BE010E94F91084E090E0BE0163
:102CA0000E943F1377C084E090E00E94F91084E016
:102CB00090E0BE010E943F1383E090E0BE010E94BD
:102CC000F91083E090E0BE010E943F1382E090E0A3
:102CD000BE010E94F91082E090E0BE010E943F1305
:102CE00081E090E0BE010E94F91081E090E0BE0119
:102CF0000E943F134FC081E090E00E94F91082E0F3
:102D000090E0BE010E94F91083E090E0BE010E94B5
:102D1000F91084E090E0BE010E94F91081E090E09B
:102D2000BE010E943F1382E090E0BE010E943F136B
:102D300083E090E0BE010E943F1384E090E0BE017A
:102D40000E943F1327C084E090E00E94F91083E0C6
:102D500090E0BE010E94F91082E090E0BE010E9466
:102D6000F91081E090E0BE010E94F91084E090E04B
:102D7000BE010E943F1383E090E0BE010E943F131A
:102D800082E090E0BE010E943F1381E090E0BE012E
:102D90000E943F13DF91CF9108950F931F93CF931C
:102DA000DF93EB018A018430910509F465C0853019
:102DB000910564F48230910589F1833091050CF01E
:102DC00044C08130910509F029C111C086309105B8
:102DD00009F498C0863091050CF465C087309105E0
:102DE00009F4BFC08830910509F018C1E9C081E03D
:102DF00090E00E94AE0A82E090E0BE01A8010E942D
:102E0000AE0A83E090E0BE01A8010E94AE0A84E011
:102E100090E0BE01A8010E94AE0A00C181E090E0EE
:102E20000E946B0482E090E0BE01A8010E946B0446
:102E300083E090E0BE01A8010E946B0484E090E072
:102E4000BE01A8010E946B04E9C084E090E00E94EA
:102E5000AE0A83E090E0BE01A8010E94AE0A82E0C3
:102E600090E0BE01A8010E94AE0A81E090E0BE01A0
:102E7000A8010E94AE0AD2C084E090E00E946B04D8
:102E800083E090E0BE01A8010E946B0482E090E024
:102E9000BE01A8010E946B0481E090E0BE01A80180
:102EA0000E946B04BBC081E090E00E94AE0A81E00A
:102EB00090E0BE01A8010E946B0482E090E0BE0198
:102EC000A8010E94AE0A82E090E0BE01A8010E9423
:102ED0006B0483E090E0BE01A8010E94AE0A83E08B
:102EE00090E0BE01A8010E946B0484E090E0BE0166
:102EF000A8010E94AE0A84E090E0BE01A8010E94F1
:102F00006B048CC084E090E00E94AE0A84E090E004
:102F1000BE01A8010E946B0483E090E0BE01A801FD
:102F20000E94AE0A83E090E0BE01A8010E946B04FB
:102F300082E090E0BE01A8010E94AE0A82E090E02B
:102F4000BE01A8010E946B0481E090E0BE01A801CF
:102F50000E94AE0A81E090E0BE01A8010E946B04CD
:102F60005DC081E090E00E94AE0A82E090E0BE0188
:102F7000A8010E94AE0A83E090E0BE01A8010E9471
:102F8000AE0A84E090E0BE01A8010E94AE0A81E092
:102F900090E0BE01A8010E946B0482E090E0BE01B7
:102FA000A8010E946B0483E090E0BE01A8010E948A
:102FB0006B0484E090E0BE01A8010E946B042EC067
:102FC00084E090E00E94AE0A83E090E0BE01A80198
:102FD0000E94AE0A82E090E0BE01A8010E94AE0A03
:102FE00081E090E0BE01A8010E94AE0A84E090E07A
:102FF000BE01A8010E946B0483E090E0BE01A8011D
:103000000E946B0482E090E0BE01A8010E946B0464
:1030100081E090E0BE01A8010E946B04DF91CF9196
:0A3020001F910F910895F894FFCF5F
:06302A0001000200040099
:00000001FF
